{
  "contractName": "KycContract",
  "abi": [
    {
      "inputs": [
        {
          "internalType": "address",
          "name": "_addr",
          "type": "address"
        }
      ],
      "name": "setKycCompleted",
      "outputs": [],
      "stateMutability": "nonpayable",
      "type": "function"
    },
    {
      "inputs": [
        {
          "internalType": "address",
          "name": "_addr",
          "type": "address"
        }
      ],
      "name": "setKycRevoked",
      "outputs": [],
      "stateMutability": "nonpayable",
      "type": "function"
    },
    {
      "inputs": [
        {
          "internalType": "address",
          "name": "_addr",
          "type": "address"
        }
      ],
      "name": "kycCompleted",
      "outputs": [
        {
          "internalType": "bool",
          "name": "",
          "type": "bool"
        }
      ],
      "stateMutability": "view",
      "type": "function",
      "constant": true
    }
  ],
  "bytecode": "0x608060405234801561001057600080fd5b506102b3806100206000396000f3fe608060405234801561001057600080fd5b50600436106100415760003560e01c806370c9aedd14610046578063dc3958cc14610062578063df235fe41461007e575b600080fd5b610060600480360381019061005b919061021a565b6100ae565b005b61007c6004803603810190610077919061021a565b610108565b005b6100986004803603810190610093919061021a565b610162565b6040516100a59190610262565b60405180910390f35b60016000808373ffffffffffffffffffffffffffffffffffffffff1673ffffffffffffffffffffffffffffffffffffffff16815260200190815260200160002060006101000a81548160ff02191690831515021790555050565b60008060008373ffffffffffffffffffffffffffffffffffffffff1673ffffffffffffffffffffffffffffffffffffffff16815260200190815260200160002060006101000a81548160ff02191690831515021790555050565b60008060008373ffffffffffffffffffffffffffffffffffffffff1673ffffffffffffffffffffffffffffffffffffffff16815260200190815260200160002060009054906101000a900460ff169050919050565b600080fd5b600073ffffffffffffffffffffffffffffffffffffffff82169050919050565b60006101e7826101bc565b9050919050565b6101f7816101dc565b811461020257600080fd5b50565b600081359050610214816101ee565b92915050565b6000602082840312156102305761022f6101b7565b5b600061023e84828501610205565b91505092915050565b60008115159050919050565b61025c81610247565b82525050565b60006020820190506102776000830184610253565b9291505056fea264697066735822122097a31c05a4d7765d34b99beff538a0247ccc8525139e0090d76bb93f3a9ad13964736f6c63430008090033",
  "immutableReferences": {},
  "source": "//SPDX-License-Identifier: UNLICENSED\npragma solidity ^0.8.0;\nimport \"../node_modules/@openzeppelin/contracts/access/Ownable.sol\";\ncontract KycContract {\n    mapping(address => bool) allowed;\n\n    function setKycCompleted(address _addr) public {\n        allowed[_addr] = true;\n    }\n\n    function setKycRevoked(address _addr) public {\n        allowed[_addr] = false;\n    }\n\n    function kycCompleted(address _addr) public view returns(bool){\n        return allowed[_addr];\n    }\n\n\n}",
  "sourcePath": "/Users/johnpurcell/FinalProject/contracts/KycContract.sol",
  "compiler": {
    "name": "solc",
    "version": "0.8.9+commit.e5eed63a.Emscripten.clang"
  },
  "schemaVersion": "3.4.3",
  "updatedAt": "2021-12-29T18:40:11.901Z",
  "networkType": "ethereum",
  "devdoc": {
    "kind": "dev",
    "methods": {},
    "version": 1
  },
  "userdoc": {
    "kind": "user",
    "methods": {},
    "version": 1
  }
}